:020000040800F2
:10000000005000202D2900086D20000873200008F2
:10001000792000087F2000088520000800000000EB
:100020000000000000000000000000008B2000081D
:100030009720000800000000A3200008AF2000085F
:100040007529000875290008752900087529000818
:100050007529000875290008752900087529000808
:1000600075290008752900087529000875290008F8
:1000700075290008752900087529000875290008E8
:1000800075290008752900087529000875290008D8
:1000900075290008752900087529000875290008C8
:1000A00075290008752900087529000875290008B8
:1000B000BD20000875290008752900087529000869
:1000C0007529000875290008752900087529000898
:1000D0007529000875290008D12000087529000835
:1000E000E5200008752900087529000800000000B7
:1000F0000000000000000000000000000000000000
:0C01000000000000000000005FF808F1A3
:10010C0010B5054C237833B9044B13B10448AFF345
:10011C0000800123237010BDDC00002000000000D3
:10012C00F45E000808B5034B1BB103490348AFF359
:10013C00008008BD00000000E0000020F45E000814
:10014C00034613F8012B002AFBD1181A013870470B
:10015C007BB972B90029BEBF00204FF0004106E008
:10016C0008BF00281CBF6FF000414FF0FF3000F0BB
:10017C00A1B9ADF1080C6DE904CE002909DB002B07
:10018C001ADB00F035F8DDF804E0DDE9022304B0F9
:10019C007047404261EB4101002B1BDB00F028F85B
:1001AC00DDF804E0DDE9022304B0404261EB4101DB
:1001BC00524263EB43037047524263EB430300F03C
:1001CC0017F8DDF804E0DDE9022304B0404261EBEE
:1001DC0041017047524263EB430300F009F8DDF82C
:1001EC0004E0DDE9022304B0524263EB43037047A1
:1001FC002DE9F047089E0D4604468E46002B40F034
:10020C0083808A42174647D9B2FA82F34BB1C3F1C5
:10021C00200105FA03FE20FA01F19F4041EA0E0E7F
:10022C009C404FEA1748BEFBF8FC1FFA87F908FB05
:10023C001CE20CFB09F0210C41EA024290420AD963
:10024C00BA180CF1FF3180F01881904240F2158100
:10025C00ACF1020C3A44121AB2FBF8F008FB102273
:10026C0000FB09F1A4B244EA0244A14209D93C19A9
:10027C0000F1FF3280F00381A14240F2008102388C
:10028C003C44641A002140EA0C401EB10022DC40C0
:10029C00C6E90042BDE8F08702B9FFDEB2FA82F38C
:1002AC00002B4FD18D1A01214FEA124E1FFA82F802
:1002BC00B5FBFEFC0EFB1C5508FB0CF0220C42EAB5
:1002CC000545A84207D97D190CF1FF3202D2A8428C
:1002DC0000F2E98094462D1AB5FBFEF00EFB10558A
:1002EC0008FB00F8A4B244EA0544A04507D93C1920
:1002FC0000F1FF3202D2A04500F2D9801046A4EBE7
:10030C00080440EA0C40C0E78B4208D9002E00F0EC
:10031C00B1800021C6E900050846BDE8F087B3FAB4
:10032C0083F100294BD1AB4202D3824200F2B98057
:10033C00841A65EB030301209E46002EAAD0C6E961
:10034C00004EA7E79F40C3F12002D1404FEA174E61
:10035C00B1FBFEF01FFA87F80EFB101124FA02F223
:10036C009D4000FB08FC2A43150C45EA0145AC45B1
:10037C0004FA03F409D97D1900F1FF3180F08F8064
:10038C00AC4540F28C8002383D44A5EB0C05B5FB26
:10039C00FEF10EFB115C01FB08F995B245EA0C4528
:1003AC00A94507D97D1901F1FF3274D2A94572D93B
:1003BC0002393D44A5EB090541EA004178E7C1F15A
:1003CC0020078B4022FA07FC4CEA030C25FA07F4B1
:1003DC004FEA1C4EB4FBFEF91FFA8CF80EFB1944C5
:1003EC0020FA07F309FB08FA8D401D432B0C43EA56
:1003FC000444A24502FA01F200FA01F309D91CEBFC
:10040C00040409F1FF3048D2A24546D9A9F10209EA
:10041C006444A4EB0A04B4FBFEF00EFB104400FB96
:10042C0008FAADB245EA0444A24508D91CEB040411
:10043C0000F1FF352DD2A2452BD90238644440EA95
:10044C000940A0FB0289A4EB0A044C45C6464D4664
:10045C0019D316D05EB1B3EB0E0264EB050404FAAB
:10046C0007F722FA01F31F43CC40C6E900740021C0
:10047C00BDE8F087314630460CE78C46EBE610467B
:10048C00FFE64345E6D2B8EB020E69EB0C050138EA
:10049C00E0E72846D3E711468CE78146B9E70846E2
:1004AC0073E7084649E7ACF1020C3D4413E7023808
:1004BC003C4424E7704700BF80B400AF024B1B885C
:1004CC001846BD4680BC7047FE00002080B400AFCB
:1004DC00024B1B881846BD4680BC704700010020AB
:1004EC0080B400AF024B1B881846BD4680BC7047D9
:1004FC000201002080B483B000AF0346FB80044AA5
:10050C00FB88138000BF0C37BD4680BC704700BF12
:10051C00FE00002080B483B000AF0346FB80044A89
:10052C00FB88138000BF0C37BD4680BC704700BFF2
:10053C000001002080B483B000AF0346FB80044A66
:10054C00FB88138000BF0C37BD4680BC704700BFD2
:10055C000201002080B400AF094B1B881AB2094B72
:10056C001A80094B1B881AB2084B1A80084B1B883F
:10057C001AB2084B1A8000BFBD4680BC704700BF42
:10058C0002010020FC000020FE000020F8000020EA
:10059C0000010020FA00002080B400AF124BB3F928
:1005AC000030002B09DC114BB3F900309BB2013B3E
:1005BC009BB21AB20D4B1A8008E00B4BB3F900300A
:1005CC009BB2013B9BB21AB2074B1A80084BB3F992
:1005DC0000309BB2013B9BB21AB2054B1A8000BF94
:1005EC00BD4680BC704700BFFC000020FA00002014
:1005FC00F800002080B500AF00F08AFC0346002B09
:10060C001BD0012B36D10B2000F072FC1A4BB3F926
:10061C000030002B03DC012000F05AFC02E00A2021
:10062C0000F056FC154BB3F90030002B1FDC0020FA
:10063C0000F078FCFFF78EFF19E00B2000F048FC6F
:10064C000D4BB3F90030002B03DC012000F050FC03
:10065C0002E00A2000F04CFC084BB3F90030002BF0
:10066C0007DC012000F05EFCFFF774FF01E000BF27
:10067C0000E000BF00BF80BDFC000020F80000209F
:10068C0098B500AF00F0E9FD0021002000F0EFFD6F
:10069C003D4800F0CDFD0021012000F0E8FD00F008
:1006AC0061FC0346184600F0C3FD00F05BFC0346FA
:1006BC001846FFF745FD03461946012000F0D7FD0B
:1006CC00324BB3F900301A463149324805F088F8FC
:1006DC00304800F0ADFD00F045FC03461846FFF72E
:1006EC002FFD04462B48FFF72BFD034623441946E8
:1006FC00012000F0BCFD284BB3F90030002B06DCC8
:10070C0000F044FC0346184600F092FD05E000F0B2
:10071C0033FC0346184600F08BFD00F023FC034627
:10072C001846FFF70DFD04461A48FFF709FD03466E
:10073C001C4400F021FC03461846FFF701FD03465C
:10074C0023441946012000F092FD134BB3F90030FD
:10075C00002B0BDC114BB3F900301A460C490D4839
:10076C0005F03EF80B4800F063FD0AE00A4BB3F9C4
:10077C0000301A460649074805F032F8054800F0E3
:10078C0057FD00BF98BD00BF00000020F8000020FE
:10079C000C5F000840010020FC000020FA00002043
:1007AC0080B500AF0D4B1B88002B01D0FFF722FF4B
:1007BC0000F046FB00F0FAFA0346002B0CD0FFF7D2
:1007CC00EBFE00F031FB054B1B88002B02D0FFF732
:1007DC0057FF01E0FFF70EFF00BF80BDFE000020B9
:1007EC0080B500AF00F094FB0346002B02D0012B28
:1007FC0007D00DE00A2000F07BFB0B2000F068FB1B
:10080C0006E00B2000F074FB0A2000F061FB00BF37
:10081C0000BF80BD80B500AF00F01FFD002100209F
:10082C0000F025FD094800F003FD0021012000F037
:10083C001EFD00F06DFB0346002B01D0044B00E0C5
:10084C00044B184600F0F4FC00BF80BD14000020DF
:10085C00380000202800002080B500AF00F058FBC5
:10086C000346002B13D0194B1B781A46184B9B5C74
:10087C00184601F0A9FF174B1B78002B07D0154B1E
:10088C0000221A70002000F04DFBFFF7C3FF00F0B0
:10089C003FFB0346002B13D10C4B1B781A460C4B19
:1008AC009B5C184601F0ECFF0B4B1B78002B07D020
:1008BC00094B00221A70012000F034FBFFF7AAFF4D
:1008CC0000F0BEFAFFF78CFF00BF80BD23010020B3
:1008DC0028020020200100202101002080B500AF5B
:1008EC00AD4B1B78032B00F26A8101A252F823F066
:1008FC000D09000893090008410A0008ED0A0008D8
:10090C00002000F05DFAA54B1B781A46A44B9B5CAB
:10091C00184601F07BFDA14B1B781A46A04B9B5C43
:10092C00184601F0B5FD9D4B1B781A469C4B9B5C01
:10093C00184601F009FE9B4B1B78002B08D0964BF8
:10094C0001221A70974B00221A7000F087F91CE1F3
:10095C00954B1B78002B08D08F4B02221A70924BB0
:10096C0000221A7000F07AF90FE1904B1B78002BE3
:10097C0000F00B81884B03221A708C4B00221A70EA
:10098C0000F06CF901E10B2000F01AFA834B1B7894
:10099C001A46834B9B5C184601F032FE844B1B7845
:1009AC00002B1DD07D4B1B781A467D4B9B5C18464B
:1009BC0001F06CFE7F4B1B78002B00F0E8807C4B29
:1009CC0000221A707B4B00221A707B4B1B88184636
:1009DC00FFF790FD704B00221A7000F03FF9D6E043
:1009EC006E4B1B781A466E4B9B5C184601F050FD03
:1009FC006A4B1B781A466A4B9B5C184601F0A4FDA7
:100A0C00694B1B78002B07D0634B02221A70664B84
:100A1C0000221A7000F022F9644B1B78002B00F0B6
:100A2C00B6805D4B03221A70604B00221A7000F0E6
:100A3C0015F9ACE0012000F0C3F9584B1B781A46AD
:100A4C00574B9B5C184601F0DBFD594B1B78002B78
:100A5C001DD0524B1B781A46514B9B5C184601F02B
:100A6C0015FE544B1B78002B00F09380504B00224A
:100A7C001A70504B00221A704F4B1B881846FFF708
:100A8C0049FD454B00221A7000F0E8F881E0434B19
:100A9C001B781A46424B9B5C184601F0B7FC3F4B47
:100AAC001B781A463E4B9B5C184601F04DFD3D4BA6
:100ABC001B78002B07D0384B01221A70394B0022BF
:100ACC001A7000F0CBF8394B1B78002B61D0324BED
:100ADC0003221A70354B00221A7000F0BFF858E050
:100AEC000A2000F06DF92D4B1B781A462C4B9B5CA1
:100AFC00184601F085FD2E4B1B78002B1CD0274B84
:100B0C001B781A46264B9B5C184601F0BFFD294BFF
:100B1C001B78002B52D0264B00221A70254B00223A
:100B2C001A70254B1B881846FFF704FD1A4B002240
:100B3C001A7000F093F841E0184B1B781A46184BCA
:100B4C009B5C184601F0A4FC144B1B781A46144B02
:100B5C009B5C184601F05AFC134B1B78002B07D0FA
:100B6C000D4B02221A70104B00221A7000F076F80E
:100B7C000C4B1B78002B21D0074B01221A70094B10
:100B8C0000221A7000F06AF818E000BF17E000BFEE
:100B9C0015E000BF13E000BF04010020230100207A
:100BAC00280200201B0100201C0100201D01002038
:100BBC001E010020320100203001002000BF0E4B2E
:100BCC001B781A460D4B9B5C184601F081FB0C4BB5
:100BDC001B78002B0ED00B4B1B78002B0AD0084B2C
:100BEC0000221A70074B00221A70074B00221A7051
:100BFC0000F034F800BF80BD230100202802002043
:100C0C00040100201A0100201E01002080B400AF56
:100C1C00034B00221A7000BFBD4680BC704700BF5A
:100C2C0004010020B0B500AFFFF746FC03461C469C
:100C3C00FFF756FC03461D46FFF748FC03462B44C2
:100C4C009C4208D00020FFF755FC0020FFF772FCF7
:100C5C000020FFF75FFC00BFB0BD000080B500AF07
:100C6C0000F0FBFA264B1B78032B47D801A252F855
:100C7C0023F000BF910C0008AF0C0008CD0C00084D
:100C8C00EB0C00080021002000F0F1FA1D4800F0E8
:100C9C00CFFA0021012000F0EAFA1B4800F0C8FA54
:100CAC002CE00021002000F0E2FA184800F0C0FA15
:100CBC000021012000F0DBFA154800F0B9FA1DE024
:100CCC000021002000F0D3FA104800F0B1FA002106
:100CDC00012000F0CCFA0F4800F0AAFA0EE0002137
:100CEC00002000F0C4FA094800F0A2FA002101200B
:100CFC0000F0BDFA084800F09BFA00BF00BF80BDB1
:100D0C0004010020105F0008245F0008345F000815
:100D1C00485F0008545F0008645F000880B500AFAE
:100D2C00FFF7DCFD00BF80BD80B500AF084B1B6832
:100D3C00013B074A1360064B1B68002B06DC202185
:100D4C00044802F0F5F9024B64221A6000BF80BD22
:100D5C004C0000200008014080B400AF044B64221A
:100D6C001A60044B00221A7000BFBD4680BC70474D
:100D7C00680000200801002080B400AF094B1B68FC
:100D8C00013B084A1360074B1B68002B05DC064B24
:100D9C0001221A70034B64221A6000BFBD4680BC4E
:100DAC00704700BF680000200801002080B400AF2D
:100DBC00024B1B781846BD4680BC704708010020CA
:100DCC0080B582B000AF0346FB71164B1B78002B2D
:100DDC000BD100F0B7F8FFF7E9FF0346002B04D066
:100DEC0000F022F80F4AFB7913700E4B1B78002B86
:100DFC0011D0FB79184600F06BF8FB79184600F01F
:100E0C0077F8FFF7D3FF0346002B04D000F00CF863
:100E1C00044B00221A7000F013F800BF0837BD46CF
:100E2C0080BD00BF0901002080B400AF034B00223D
:100E3C001A7000BFBD4680BC704700BF080100207F
:100E4C0080B500AF1E4B1B781E4AA2FB0323DB08A8
:100E5C00DBB21A4610211C4802F052F9184B1A78D2
:100E6C00184BA3FB0213D9080B469B000B445B00E9
:100E7C00D31ADBB21A464FF48061134802F040F9E2
:100E8C00124B1B780F4AA2FB0323DB08DBB21A467A
:100E9C0008210D4802F034F90C4B1A78094BA3FBCE
:100EAC000213D9080B469B000B445B00D31ADBB230
:100EBC001A462021044802F023F900BF80BD00BF70
:100ECC0005010020CDCCCCCC000C0140060100204B
:100EDC0080B483B000AF0346FB71044AFB791370F6
:100EEC0000BF0C37BD4680BC704700BF0601002018
:100EFC0080B483B000AF0346FB71044AFB791370D6
:100F0C0000BF0C37BD4680BC704700BF05010020F8
:100F1C0080B400AF024B1B781846BD4680BC7047AE
:100F2C000701002080B483B000AF0346FB71044A74
:100F3C00FB79137000BF0C37BD4680BC704700BFF7
:100F4C000701002080B400AF044B00221A70044B40
:100F5C0000221A7000BFBD4680BC704705010020FE
:100F6C000601002080B400AF024B1846BD4680BC81
:100F7C00704700BF5000002080B400AF024B1846F1
:100F8C00BD4680BC704700BF5800002080B400AF45
:100F9C00024B1846BD4680BC704700BF6000002065
:100FAC0080B500AF00F059F90021002000F05FF986
:100FBC00054800F03DF90021012000F058F90348E4
:100FCC0000F036F900BF80BD745F0008845F000834
:100FDC0080B500AF484B1B78032B5DD801A252F8AB
:100FEC0023F000BF011000089110000897100008B2
:100FFC009D1000080120FFF7E3FE404B1B781A46BA
:10100C003F4B9B5C184601F013F93C4B1B781A467E
:10101C003B4B9B5C184601F05BF9384B1B781A462E
:10102C00374B9B5C184601F0AFF9364B1B78002B05
:10103C000CD0FFF791FEFFF78DFA2F4B01221A709F
:10104C00304B00221A70FFF71BFB24E02E4B1B7851
:10105C00002B0AD0FFF780FE274B02221A702A4B76
:10106C0000221A70FFF7FAFD15E0284B1B78002BB5
:10107C0011D0214B03221A70244B00221A70FFF757
:10108C00C9FB08E0FFF78CFB06E0FFF747FE03E027
:10109C00FFF7E2FB00E000BF184B1B781A46184B19
:1010AC009B5C184601F068F8194B1B78002B13D089
:1010BC00114B1B78002B01D0FFF772FF0E4B1B78E6
:1010CC00022B03D1FFF7AEFDFFF7A0FD0A4B002268
:1010DC001A700F4B00221A70084B1B780133DAB2CE
:1010EC00064B1A70054B1B78062B02D9034B0022BA
:1010FC001A7000BF80BD00BF0A0100202301002030
:10110C0028020020190100201A0100201F010020D4
:10111C001801002080B586B002AF0346FB71FB7945
:10112C0023F00F03FB73FB791B01BB73FB7B43F0B9
:10113C000C03DBB23B72FB7B43F00803DBB27B722C
:10114C00BB7B43F00C03DBB2BB72BB7B43F00803ED
:10115C00DBB2FB7207F108026423009304234221E3
:10116C00034802F065F900BF1037BD4680BD00BFD3
:10117C004401002080B586B002AF0346FB71FB79B9
:10118C0023F00F03FB73FB791B01BB73FB7B43F059
:10119C000D03DBB23B72FB7B43F00903DBB27B72CA
:1011AC00BB7B43F00D03DBB2BB72BB7B43F009038B
:1011BC00DBB2FB7207F10802642300930423422183
:1011CC00034802F035F900BF1037BD4680BD00BFA3
:1011DC004401002080B500AF3320FFF79BFF322085
:1011EC00FFF798FF322001F023FC2820FFF792FF35
:1011FC00322001F01DFC0120FFF78CFF322001F0A2
:10120C0017FC0620FFF786FF322001F011FC0C20A2
:10121C00FFF780FF322001F00BFC0220FFF77AFF72
:10122C00322001F005FC8020FFF774FF00BF80BD69
:10123C0080B582B000AF786006E07B685A1C7A609B
:10124C001B781846FFF796FF7B681B78002BF4D1B0
:10125C0000BF00BF0837BD4680BD80B500AF012080
:10126C00FFF758FF322001F0E3FB00BF80BD80B5D3
:10127C0084B000AF786039607B68002B08D17B6844
:10128C00DAB23B68DBB21344DBB2803BFB7308E0A1
:10129C003B68DBB24033DBB25BB263F07F035BB223
:1012AC00FB73FB7B1846FFF735FF00BF1037BD46BD
:1012BC0080BD000080B582B002AF01F057FB00F09A
:1012CC0037F800F01BF900F0EFF800F073F800F0BD
:1012DC009FF8124803F062F801221149114803F0FB
:1012EC004FFC00F06BFAFFF775FF0A2300934FF0E9
:1012FC0000024FF000030C4800F036FD0A23009367
:10130C004FF000024FF00003084800F02DFDFFF7EE
:10131C0047FE00F0D9FCFFF75BFEFAE798010020CE
:10132C000B010020E0010020350D0008850D0008A0
:10133C0080B590B000AF07F11803282200211846A1
:10134C0004F090F93B1D00221A605A609A60DA6032
:10135C001A610223BB610123BB621023FB620223CF
:10136C007B630023BB634FF46013FB6307F118032B
:10137C00184602F0B5FB0346002B01D000F07CF9B7
:10138C000F237B600223BB60A023FB604FF48063C0
:10139C003B6100237B613B1D0221184602F020FEBD
:1013AC000346002B01D000F067F900BF4037BD4663
:1013BC0080BD000080B500AF124B134A1A60114B70
:1013CC00124A5A600F4B00229A600E4B0022DA60D0
:1013DC000C4B4FF480421A610A4B00225A61094BA4
:1013EC0000229A61074B0022DA61064B00221A6236
:1013FC00044801F0D9FE0346002B01D000F03CF963
:10140C0000BF80BD4401002000540040A0860100B4
:10141C0080B586B000AF07F1080300221A605A604D
:10142C009A60DA603B4600221A605A601D4B4FF0FE
:10143C0080421A601B4B41F63F725A60194B0022D6
:10144C009A60184B0922DA60164B00221A61154B70
:10145C0000229A61134802F051FF0346002B01D081
:10146C0000F00AF94FF48053BB6007F108031946EA
:10147C000C4803F0D5F80346002B01D000F0FCF823
:10148C0000233B6000237B603B461946054803F074
:10149C00B7FA0346002B01D000F0EEF800BF183766
:1014AC00BD4680BD9801002080B500AF114B124A9B
:1014BC001A60104B4FF4E1325A600E4B00229A60C6
:1014CC000C4B0022DA600B4B00221A61094B0C22E8
:1014DC005A61084B00229A61064B0022DA610548DA
:1014EC0003F0FEFA0346002B01D000F0C5F800BF54
:1014FC0080BD00BFE00100200044004080B588B0F2
:10150C0000AF07F1100300221A605A609A60DA608B
:10151C00384B9B69374A43F010039361354B9B69F9
:10152C0003F01003FB60FB68324B9B69314A43F0BC
:10153C00200393612F4B9B6903F02003BB60BB68B6
:10154C002C4B9B692B4A43F004039361294B9B69F9
:10155C0003F004037B607B68264B9B69254A43F0B0
:10156C0008039361234B9B6903F008033B603B68C2
:10157C0000222021204801F0C3FD00224FF4876196
:10158C001E4801F0BDFD4FF400533B611C4B7B61C9
:10159C000023BB6107F1100319461A4801F02CFC1B
:1015AC0020233B6101237B610023BB610223FB6190
:1015BC0007F110031946104801F01EFC4FF4876325
:1015CC003B6101237B610023BB610223FB6107F1BB
:1015DC0010031946094801F00FFC002200212820B5
:1015EC0001F021FB282001F03AFB00BF2037BD465B
:1015FC0080BD00BF0010024000080140000C0140FB
:10160C00000011100010014080B582B000AF78606E
:10161C0000F006F900BF0837BD4680BD80B582B02A
:10162C0000AF78607B681B680E4A934216D10E4B54
:10163C001B785A1CD1B20C4A11701A460B4B1978F4
:10164C000B4B9954084B1B78062B02D9064B0022E6
:10165C001A7001220549074803F092FA00BF0837B7
:10166C00BD4680BD00440040220100200B0100203B
:10167C0028020020E001002080B400AF72B600BF49
:10168C00FEE780B586B000AFF860C7E90023002301
:10169C007B61202003F0D6FF03467B617B69002B26
:1016AC0001D17B6914E07B69FA681A607969D7E922
:1016BC000023C1E902237B693A6A1A617B697A6A61
:1016CC005A617B69BA6A9A617B69FA6ADA617B69E9
:1016DC0018461837BD4680BD80B582B000AF0023D8
:1016EC007B600C2003F0AEFF03467B607B68002B15
:1016FC0001D17B6809E07B6800221A607B680022BC
:10170C005A607B6800221A727B6818460837BD46FF
:10171C0080BD80B586B000AF78607B68002B29D087
:10172C007B681B687B617B685B683B617B69002B1A
:10173C0007D07B699B69FB60786903F08BFFFB68C2
:10174C007B613B69002B07D03B69DB69BB60386967
:10175C0003F080FFBB683B617A693B699A42E5D133
:10176C007B69002B02D0786903F074FF7B68002240
:10177C001A7200E000BF1837BD4680BD80B582B03C
:10178C0000AF102003F05EFF03467B607B68002BEC
:10179C0001D100230EE07B6800221A7379684FF0A8
:1017AC00FF326FF00043C1E900237B684FF0FF323A
:1017BC009A607B6818460837BD4680BD80B500AF7F
:1017CC00154B1B68002B05D1FFF7D8FF0346124AB7
:1017DC00136010E0104B1B6800221A730E4B196833
:1017EC004FF0FF326FF00043C1E900230A4B1B6836
:1017FC004FF0FF329A60094B1B68002B05D1FFF7A5
:10180C006BFF0346054A136004E0044B1B68184643
:10181C00FFF77FFF80BD00BF100100200C010020EE
:10182C0090B400AF094B1B68002B0AD0074B1C6807
:10183C00D4E9002312F1FF3043F1FF31C4E9000178
:10184C0000E000BFBD4690BC704700BF10010020F7
:10185C0080B485B000AF7860194B1B685B68FB6087
:10186C00FB68002B26D00023FB721EE0154B1B6877
:10187C00D3E90023F968D1E90201904271EB03032B
:10188C000DDA104B1968FB68D3E90223C1E9002378
:10189C00FB68D3E902230B49096813468B60FB688C
:1018AC00DB69FB60FB7A0133FB72FB7A7A689A4244
:1018BC00DCDC00E000BF1437BD4680BC704700BFC5
:1018CC000C010020100100202DE9B00F87B000AFF3
:1018DC00C7E902017A601B4B1B681B687B617B6943
:1018EC00002B29D00023FB7419E07B69D3E9022378
:1018FC00796888464FF00009D7E90201B8EB00047B
:10190C0069EB0105B2EB040A63EB050B7B69C3E9D8
:10191C0002AB7B699B697B61FB7C0133FB740A4BDB
:10192C001B681B7BFA7C9A42DFD3064B1A68064B6A
:10193C001B68127A1A7300E000BF1C37BD46BDE865
:10194C00B00F70470C0100201001002080B582B050
:10195C0000AF78607B68DB69002B04D07B68DB69A7
:10196C007A6892699A617B689B69002B04D07B68CA
:10197C009B697A68D269DA61064B1B681A7A013A5C
:10198C00D2B21A72786803F065FE00BF0837BD4604
:10199C0080BD00BF0C0100202DE9B04F84B000AF1A
:1019AC00754B1B68002B00F0E180734B1B681B7A96
:1019BC00002B00F0DB80704B1B681B7A012B11D1C4
:1019CC006D4B1B681B681B6898476B4B1B681B682F
:1019DC001B69694A126811681A464FF00003C1E985
:1019EC000223C4E0644B1B681B68FB60624B1B68E2
:1019FC005B68BB60604B1B681B7A5B08BB715E4B02
:101A0C001B681B7A03F001037B710023FB716CE0F4
:101A1C00FB68002B31D0FB68D3E90201574B1B68E4
:101A2C009B681A464FF00003B0EB020861EB030908
:101A3C00FB68C3E90289FB68D3E90223012A73F12D
:101A4C0000030ADAFB681B689847FB681B691A4697
:101A5C004FF00003F968C1E90223FB681B69002BF6
:101A6C0008D1FB689B69FB60FB68DB691846FFF7D4
:101A7C006DFF02E0FB689B69FB60BB68002B31D0FB
:101A8C00BB68D3E902013D4B1B689B681A464FF0BB
:101A9C000003B0EB020A61EB030BBB68C3E902ABBA
:101AAC00BB68D3E90223012A73F100030ADABB688D
:101ABC001B689847BB681B691A464FF00003B9684E
:101ACC00C1E90223BB681B69002B08D1BB68DB6929
:101ADC00BB60BB689B691846FFF738FF02E0BB6828
:101AEC00DB69BB60FB790133FB71FA79BB799A42F4
:101AFC008ED37B79002B2FD0FB68002B2CD0FB686E
:101B0C00D3E902011D4B1B689B681A464FF000037A
:101B1C00841A61EB0305FB68C3E90245FB68D3E952
:101B2C000223012A73F100030ADAFB681B68984749
:101B3C00FB681B691A464FF00003F968C1E90223E0
:101B4C00FB681B69002B07D1FB689B69FB60FB687A
:101B5C00DB691846FFF7FAFE074B1B681B68D3E9D5
:101B6C0002230649096813468B6000E000BF10375A
:101B7C00BD46BDE8B08F00BF0C0100201001002055
:101B8C0080B485B000AF4E4B1B68002B00F09380E7
:101B9C004B4B1B681B7A002B00F08D80484B1B684D
:101BAC001B7A012B11D1464B1B681A68454B1B68DD
:101BBC0012699A60434B1B689B68424A11681A462B
:101BCC004FF00003C1E9002376E03D4B1B681B6816
:101BDC00FB603B4B1B685B68BB60394B1B681B7A1B
:101BEC005B08BB71364B1B681B7A03F001037B71DE
:101BFC000023FB7136E0FB68002B16D0FB68D3E9A1
:101C0C000201304B1B689B681A464FF00003904250
:101C1C0071EB030306DAFB68D3E90223294909684F
:101C2C0013468B60FB689B69FB60BB68002B16D06E
:101C3C00BB68D3E90201234B1B689B681A464FF023
:101C4C000003904271EB030306DABB68D3E902236D
:101C5C001C49096813468B60BB68DB69BB60FB7968
:101C6C000133FB71FA79BB799A42C4D37B79002B8F
:101C7C0016D0FB68002B13D0FB68D3E90201114B83
:101C8C001B689B681A464FF00003904271EB0303EC
:101C9C0006DAFB68D3E902230A49096813468B600C
:101CAC00084B1B689B68074A11681A464FF00003E3
:101CBC00C1E9002300E000BF1437BD4680BC70476B
:101CCC000C0100201001002080B584B000AF244B23
:101CDC001B68002B40D0234B1B68D3E90023C7E9BA
:101CEC000223204B1B689B687B601D4B1B681B7A77
:101CFC001A461C4B1B681B7BD31A3B603B68002BA2
:101D0C0002DD3868FFF7A4FD164B1B68D3E90023EE
:101D1C00D7E90201994208BF904207D03B68002BDB
:101D2C0004DD7A68D7E90201FFF7CEFD3B68002B92
:101D3C0005DA0B4B1A680B4B1B68127A1A73094B9A
:101D4C001B68D3E90023012A73F1000305DAFFF7BE
:101D5C0023FEFFF715FF00E000BF1037BD4680BD26
:101D6C000C010020100100202DE9904389B004AF34
:101D7C00F860C7E900233C4B1B68002B01D1002302
:101D8C006CE0394B1B681B7A002B2ED1D7E9000174
:101D9C004FF00A024FF00003FEF7DAF902460B4649
:101DAC0010461946BB6A314AA2FB0323DB082E4AB4
:101DBC0014680022039200220292002201920093E6
:101DCC0002460B46F868FFF75CFC03462360264B83
:101DDC001A68254B1B6812685A60234B1B681A7AC9
:101DEC000132D2B21A72002338E0D7E900014FF069
:101DFC000A024FF00003FEF7ABF902460B46904681
:101E0C009946BB6A194AA2FB0323DB08164A1268DF
:101E1C0052685269013214490968496812480068CD
:101E2C0044680391002102910192009342464B4673
:101E3C00F868FFF726FC0346A3610B4B1B685A6836
:101E4C00094B1B6892695A60074B1B681A7A01325E
:101E5C00D2B21A72044B1B685B685B691846143764
:101E6C00BD46BDE8908300BF0C010020CDCCCCCC8E
:101E7C0080B485B000AF154B9B69144A43F0010345
:101E8C009361124B9B6903F00103BB60BB680F4B62
:101E9C00DB690E4A43F08053D3610C4BDB6903F0D2
:101EAC0080537B607B680A4B5B68FB60FB6823F0AC
:101EBC00E063FB60FB6843F00073FB60044AFB6863
:101ECC00536000BF1437BD4680BC70470010024001
:101EDC000000014080B58AB000AF786007F11403B0
:101EEC0000221A605A609A60DA607B681B681D4A8F
:101EFC00934232D11C4B9B691B4A43F008039361FC
:101F0C00194B9B6903F008033B613B694FF4407329
:101F1C007B611223BB6103233B6207F11403194657
:101F2C00124800F069FF124B5B687B627B6A43F0DE
:101F3C00E0637B627B6A43F002037B620C4A7B6A40
:101F4C005360094BDB69084A43F40013D361064B19
:101F5C00DB6903F40013FB60FB6800BF2837BD4648
:101F6C0080BD00BF0054004000100240000C014036
:101F7C000000014080B584B000AF78607B681B68BE
:101F8C00B3F1804F13D10C4BDB690B4A43F00103C7
:101F9C00D361094BDB6903F00103FB60FB68002292
:101FAC0000211C2000F03FFE1C2000F058FE00BF5A
:101FBC001037BD4680BD00BF0010024080B588B010
:101FCC0000AF786007F1100300221A605A609A6023
:101FDC00DA607B681B681F4A934237D11E4BDB6962
:101FEC001D4A43F40033D3611B4BDB6903F400330C
:101FFC00FB60FB68184B9B69174A43F00403936121
:10200C00154B9B6903F00403BB60BB6804233B6165
:10201C0002237B610223FB6107F1100319460F4871
:10202C0000F0EAFE08233B6100237B610023BB61C7
:10203C0007F110031946094800F0DEFE00220021CA
:10204C00262000F0F0FD262000F009FE00BF20370E
:10205C00BD4680BD00440040001002400008014015
:10206C0080B400AFFEE780B400AFFEE780B400AFF1
:10207C00FEE780B400AFFEE780B400AFFEE780B4AB
:10208C0000AF00BFBD4680BC704780B400AF00BF3E
:10209C00BD4680BC704780B400AF00BFBD4680BC5D
:1020AC00704780B500AF00F0A7FC00BF80BD0000FA
:1020BC0080B500AF024802F0C3F900BF80BD00BF7D
:1020CC009801002080B500AF024802F07FFD00BFF0
:1020DC0080BD00BFE001002080B500AF4FF4005080
:1020EC0001F040F800BF80BD80B586B000AF7860CD
:1020FC00144A154BD31A7B617B693B61134B1B68EC
:10210C00002B02D1114B124A1A60104B1A687B68D3
:10211C0013443A699A4207D203F06AFA03460C2236
:10212C001A604FF0FF3309E0084B1B68FB60074B4C
:10213C001A687B681344054A1360FB681846183705
:10214C00BD4680BD0050002000040000140100209A
:10215C004802002080B400AF00BFBD4680BC704771
:10216C0080B400AF034B00221A7000BFBD4680BC88
:10217C00704700BF2401002080B582B000AF034639
:10218C00FB71234B1B78042B3DD801A252F823F092
:10219C00B1210008C5210008D9210008ED21000853
:1021AC0001220008FB79432B03D1194B01221A7031
:1021BC0029E0FFF7D5FF26E0FB79482B03D1144B20
:1021CC0002221A701FE0FFF7CBFF1CE0FB794D2BAE
:1021DC0003D10F4B03221A7015E0FFF7C1FF12E079
:1021EC00FB794F2B03D10A4B04221A700BE0FFF73B
:1021FC00B7FF08E0FB79442B02D1064B01221A7081
:10220C00FFF7AEFF00BF00BF0837BD4680BD00BF63
:10221C00240100201801002080B400AF034B0022E1
:10222C001A7000BFBD4680BC704700BF250100205E
:10223C0080B582B000AF0346FB711D4B1B78032B9E
:10224C0031D801A252F823F0652200087922000847
:10225C008D220008A1220008FB79412B03D1144BDD
:10226C0001221A701FE0FFF7D7FF1CE0FB79552BFA
:10227C0003D10F4B02221A7015E0FFF7CDFF12E0CD
:10228C00FB79542B03D10A4B03221A700BE0FFF796
:10229C00C3FF08E0FB794F2B02D1064B01221A70C9
:1022AC00FFF7BAFF00BF00BF0837BD4680BD00BFB7
:1022BC00250100201901002080B400AF034B00223F
:1022CC001A7000BFBD4680BC704700BF26010020BD
:1022DC0080B582B000AF0346FB71234B1B78042BF7
:1022EC003DD801A252F823F0092300081D23000851
:1022FC00312300084523000859230008FB79532B90
:10230C0003D1194B01221A7029E0FFF7D5FF26E003
:10231C00FB79452B03D1144B02221A701FE0FFF7F7
:10232C00CBFF1CE0FB79542B03D10F4B03221A700B
:10233C0015E0FFF7C1FF12E0FB79542B03D10A4BD8
:10234C0004221A700BE0FFF7B7FF08E0FB79492B6A
:10235C0002D1064B01221A70FFF7AEFF00BF00BF7F
:10236C000837BD4680BD00BF260100201A010020A1
:10237C0080B400AF034B00221A7000BFBD4680BC76
:10238C00704700BF2701002080B582B000AF034624
:10239C00FB71164B1B78022B1AD0022B21DC002B65
:1023AC0002D0012B0AD01CE0FB794D2B03D10F4B33
:1023BC0001221A7015E0FFF7DBFF12E0FB79412BCD
:1023CC0003D10A4B02221A700BE0FFF7D1FF08E091
:1023DC00FB794E2B02D1064B01221A70FFF7C8FF76
:1023EC0000BF00BF0837BD4680BD00BF27010020DD
:1023FC001F01002080B400AF034B00221A7000BFF5
:10240C00BD4680BC704700BF2801002080B582B05B
:10241C0000AF0346FB71164B1B78022B1AD0022B14
:10242C0021DC002B02D0012B0AD01CE0FB79522BB3
:10243C0003D10F4B01221A7015E0FFF7DBFF12E0FE
:10244C00FB79452B03D10A4B02221A700BE0FFF7E4
:10245C00D1FF08E0FB79442B02D1064B01221A7004
:10246C00FFF7C8FF00BF00BF0837BD4680BD00BFE7
:10247C00280100201B01002080B400AF034B002278
:10248C001A7000BFBD4680BC704700BF29010020F8
:10249C0080B582B000AF0346FB71234B1B78042B35
:1024AC003DD801A252F823F0C9240008DD2400080D
:1024BC00F12400080525000819250008FB79412B9B
:1024CC0003D1194B01221A7029E0FFF7D5FF26E042
:1024DC00FB794D2B03D1144B02221A701FE0FFF72E
:1024EC00CBFF1CE0FB79422B03D10F4B03221A705C
:1024FC0015E0FFF7C1FF12E0FB79452B03D10A4B26
:10250C0004221A700BE0FFF7B7FF08E0FB79522B9F
:10251C0002D1064B01221A70FFF7AEFF00BF00BFBD
:10252C000837BD4680BD00BF290100201C010020DA
:10253C0080B400AF034B00221A7000BFBD4680BCB4
:10254C00704700BF2A01002080B582B000AF03465F
:10255C00FB71234B1B78042B3DD801A252F823F0BE
:10256C008125000895250008A9250008BD2500082F
:10257C00D1250008FB79472B03D1194B01221A7086
:10258C0029E0FFF7D5FF26E0FB79522B03D1144B42
:10259C0002221A701FE0FFF7CBFF1CE0FB79452BE2
:1025AC0003D10F4B03221A7015E0FFF7C1FF12E0A5
:1025BC00FB79452B03D10A4B04221A700BE0FFF771
:1025CC00B7FF08E0FB794E2B02D1064B01221A70A3
:1025DC00FFF7AEFF00BF00BF0837BD4680BD00BF90
:1025EC002A0100201D01002080B400AF034B002203
:1025FC001A7000BFBD4680BC704700BF2B01002085
:10260C0080B582B000AF0346FB71164B1B78022BD2
:10261C001AD0022B21DC002B02D0012B0AD01CE09B
:10262C00FB79532B03D10F4B01221A7015E0FFF7E6
:10263C00DBFF12E0FB79452B03D10A4B02221A7007
:10264C000BE0FFF7D1FF08E0FB79542B02D1064BCE
:10265C0001221A70FFF7C8FF00BF00BF0837BD4644
:10266C0080BD00BF2B0100201E01002080B400AFF4
:10267C00044B00221A70044B00221A8000BFBD4686
:10268C0080BC70472C0100202E01002080B582B048
:10269C0000AF0346FB71424B1B78042B6FD801A291
:1026AC0052F823F0C5260008EB2600083127000855
:1026BC00772700088B270008FB792F2B0CD9FB7987
:1026CC00392B09D8FB799BB2303B9AB2354B1A8027
:1026DC00334B01221A7052E0FFF7C8FF4FE0FB7931
:1026EC002F2B15D9FB79392B12D82E4B1B881A4658
:1026FC00920013445B009AB2FB799BB213449BB2D9
:10270C00303B9AB2274B1A80254B02221A7036E0C6
:10271C00FB79232B03D1224B04221A702FE0FFF7F5
:10272C00A5FF2CE0FB792F2B15D9FB79392B12D86F
:10273C001C4B1B881A46920013445B009AB2FB791F
:10274C009BB213449BB2303B9AB2164B1A80144B7B
:10275C0003221A7013E0FB79232B03D1104B0422B4
:10276C001A700CE0FFF782FF09E0FB79232B03D1F1
:10277C000B4B04221A7001E0FFF778FF00BF084BE7
:10278C001B78042B08D1084B01221A70054B1A88B0
:10279C00064B1A80FFF76AFF00BF0837BD4680BDA5
:1027AC002C0100202E0100203201002030010020DD
:1027BC0080B400AF034B00221A7000BFBD4680BC32
:1027CC00704700BF3301002080B582B000AF0346D4
:1027DC00FB71234B1B78042B3DD801A252F823F03C
:1027EC000128000815280008292800083D280008A1
:1027FC0051280008FB79522B03D1194B01221A7076
:10280C0029E0FFF7D5FF26E0FB79452B03D1144BCC
:10281C0002221A701FE0FFF7CBFF1CE0FB79442B60
:10282C0003D10F4B03221A7015E0FFF7C1FF12E022
:10283C00FB794F2B03D10A4B04221A700BE0FFF7E4
:10284C00B7FF08E0FB79442B02D1064B01221A702A
:10285C00FFF7AEFF00BF00BF0837BD4680BD00BF0D
:10286C00330100202001002080B400AF034B002274
:10287C001A7000BFBD4680BC704700BF34010020F9
:10288C0080B582B000AF0346FB71234B1B78042B41
:10289C003DD801A252F823F0B9280008CD28000831
:1028AC00E1280008F528000809290008FB79522BBB
:1028BC0003D1194B01221A7029E0FFF7D5FF26E04E
:1028CC00FB79452B03D1144B02221A701FE0FFF742
:1028DC00CBFF1CE0FB79442B03D10F4B03221A7066
:1028EC0015E0FFF7C1FF12E0FB79452B03D10A4B32
:1028FC0004221A700BE0FFF7B7FF08E0FB79562BA8
:10290C0002D1064B01221A70FFF7AEFF00BF00BFC9
:10291C000837BD4680BD00BF3401002021010020D6
:10292C00FFF718FC0B480C490C4A002302E0D45862
:10293C00C4500433C4188C42F9D3094A094C0023FF
:10294C0001E013600432A242FBD302F057FEFEF703
:10295C00B1FC704700000020DC000020086000087B
:10296C00DC00002044020020FEE7000080B500AF30
:10297C00084B1B68074A43F010031360032000F058
:10298C0047F9002000F008F8FFF772FA0023184608
:10299C0080BD00BF0020024080B582B000AF7860DF
:1029AC00124B1A68124B1B7819464FF47A73B3FB0F
:1029BC00F1F3B2FBF3F3184600F05FF90346002B7A
:1029CC0001D001230EE07B680F2B0AD80022796816
:1029DC004FF0FF3000F027F9064A7B6813600023A4
:1029EC0000E0012318460837BD4680BD6C0000206E
:1029FC00740000207000002080B400AF054B1B78E1
:102A0C001A46054B1B681344034A136000BFBD46AE
:102A1C0080BC7047740000203002002080B400AFEE
:102A2C00024B1B681846BD4680BC70473002002024
:102A3C0080B584B000AF7860FFF7F0FFB8607B68BA
:102A4C00FB60FB68B3F1FF3F05D00A4B1B781A46BD
:102A5C00FB681344FB6000BFFFF7E0FF0246BB6856
:102A6C00D31AFA689A42F7D800BF00BF1037BD4698
:102A7C0080BD00BF7400002080B485B000AF7860CA
:102A8C007B6803F00703FB600C4BDB68BB60BA6828
:102A9C004FF6FF031340BB60FB681A02BB6813437D
:102AAC0043F0BF6343F40033BB60044ABB68D3609C
:102ABC0000BF1437BD4680BC704700BF00ED00E07E
:102ACC0080B400AF044BDB681B0A03F00703184605
:102ADC00BD4680BC704700BF00ED00E080B483B001
:102AEC0000AF0346FB7197F90730002B0BDBFB792A
:102AFC0003F01F02064997F907305B09012000FA21
:102B0C0002F241F8232000BF0C37BD4680BC704751
:102B1C0000E100E080B483B000AF03463960FB7184
:102B2C0097F90730002B0ADB3B68DAB20C4997F9AE
:102B3C0007301201D2B20B4483F800230AE03B6841
:102B4C00DAB20849FB7903F00F03043B1201D2B24D
:102B5C000B441A7600BF0C37BD4680BC704700BFD3
:102B6C0000E100E000ED00E080B489B000AFF86057
:102B7C00B9607A60FB6803F00703FB61FB69C3F182
:102B8C000703042B28BF0423BB61FB690433062B0A
:102B9C0002D9FB69033B00E000237B614FF0FF325D
:102BAC00BB6902FA03F3DA43BB681A407B699A40AB
:102BBC004FF0FF317B6901FA03F3D9437B680B407B
:102BCC00134318462437BD4680BC704780B582B08D
:102BDC0000AF78607B68013BB3F1807F01D30123A8
:102BEC000FE00A4A7B68013B53600F214FF0FF3026
:102BFC00FFF790FF054B00229A60044B07221A60E6
:102C0C00002318460837BD4680BD00BF10E000E029
:102C1C0080B582B000AF78607868FFF72DFF00BFF9
:102C2C000837BD4680BD80B586B000AF0346B9609D
:102C3C007A60FB7300237B61FFF742FF78617A684F
:102C4C00B9687869FFF790FF024697F90F30114683
:102C5C001846FFF75FFF00BF1837BD4680BD80B533
:102C6C0082B000AF0346FB7197F907301846FFF7A7
:102C7C0035FF00BF0837BD4680BD80B582B000AFC0
:102C8C0078607868FFF7A2FF034618460837BD4600
:102C9C0080BD80B485B000AF78600023FB737B6887
:102CAC0093F82130DBB2022B08D07B6804229A63A4
:102CBC007B68002283F82020012320E07B681B68BE
:102CCC001A687B681B6822F00E021A607B681B680E
:102CDC001A687B681B6822F001021A607B681A6C08
:102CEC007B68DB6B012101FA02F25A607B680122DE
:102CFC0083F821207B68002283F82020FB7B184678
:102D0C001437BD4680BC704780B584B000AF786086
:102D1C000023FB737B6893F82130DBB2022B05D0C8
:102D2C007B6804229A630123FB7351E07B681B6868
:102D3C001A687B681B6822F00E021A607B681B689D
:102D4C001A687B681B6822F001021A607B681B689A
:102D5C00224A934229D07B681B68214A934222D095
:102D6C007B681B681F4A93421AD07B681B681E4AFB
:102D7C00934212D07B681B681C4A93420AD07B6832
:102D8C001B681B4A934202D14FF480130EE04FF0A4
:102D9C0080730BE04FF4803308E04FF4805305E070
:102DAC004FF4807302E0102300E00123114A5360BA
:102DBC007B68012283F821207B68002283F8202085
:102DCC007B685B6B002B03D07B685B6B78689847E8
:102DDC00FB7B18461037BD4680BD00BF0800024083
:102DEC001C000240300002404400024058000240E7
:102DFC006C0002400000024080B48BB000AF7860E1
:102E0C00396000237B6200233B6269E101227B6A0B
:102E1C0002FA03F3FB613B681B68FA691340BB6160
:102E2C00BA69FB699A4240F058813B685B689A4AE0
:102E3C0093425ED0984A934275D8984A934258D0A0
:102E4C00964A93426FD8964A934252D0944A9342F0
:102E5C0069D8944A93424CD0924A934263D8924A8E
:102E6C00934246D0904A93425DD8122B2AD8122B0B
:102E7C0059D801A252F823F0FF2E0008D92E0008D1
:102E8C00EB2E00082D2F0008332F0008332F0008DD
:102E9C00332F0008332F0008332F0008332F00087E
:102EAC00332F0008332F0008332F0008332F00086E
:102EBC00332F0008332F0008332F0008E12E0008B1
:102ECC00F52E0008794A934213D02CE03B68DB685E
:102EDC003B6229E03B68DB6804333B6224E03B68DF
:102EEC00DB6808333B621FE03B68DB680C333B62FA
:102EFC001AE03B689B68002B02D104233B6213E071
:102F0C003B689B68012B05D108233B627B68FA69FF
:102F1C001A6109E008233B627B68FA695A6103E095
:102F2C0000233B6200E000BFBB69FF2B01D87B682C
:102F3C0001E07B6804337B61BB69FF2B02D87B6AA1
:102F4C009B0002E07B6A083B9B003B617B691A6833
:102F5C000F213B6901FA03F3DB431A40396A3B69E1
:102F6C0001FA03F31A437B691A603B685B6803F050
:102F7C008053002B00F0B1804D4B9B694C4A43F0C1
:102F8C00010393614A4B9B6903F00103BB60BB686F
:102F9C00484A7B6A9B08023352F82330FB607B6AF9
:102FAC0003F003039B000F2202FA03F3DB43FA68DE
:102FBC001340FB607B68404A934213D07B683F4AC6
:102FCC0093420DD07B683E4A934207D07B683D4AC2
:102FDC00934201D1032306E0042304E0022302E020
:102FEC00012300E000237A6A02F00302920093406E
:102FFC00FA681343FB602F497B6A9B080233FA681B
:10300C0041F823203B685B6803F48013002B06D047
:10301C002D4B9A682C49BB6913438B6006E02A4BF5
:10302C009A68BB69DB43284913408B603B685B683B
:10303C0003F40013002B06D0234BDA682249BB693A
:10304C001343CB6006E0204BDA68BB69DB431E49B7
:10305C001340CB603B685B6803F40033002B06D055
:10306C00194B5A681849BB6913434B6006E0164B61
:10307C005A68BB69DB43144913404B603B685B687F
:10308C0003F48033002B21D00F4B1A680E49BB6917
:10309C0013430B6021E000BF000032100000311020
:1030AC00000022100000211000001210000011106E
:1030BC00001002400000014000080140000C0140DB
:1030CC000010014000140140000401400B4B1A6831
:1030DC00BB69DB43094913400B607B6A01337B629C
:1030EC003B681A687B6A22FA03F3002B7FF48EAEDE
:1030FC0000BF00BF2C37BD4680BC704700040140A8
:10310C0080B483B000AF78600B467B8013467B7035
:10311C007B78002B03D07A887B681A6103E07B886C
:10312C001A047B681A6100BF0C37BD4680BC70471F
:10313C0080B485B000AF78600B467B807B68DB6821
:10314C00FB607A88FB6813401A04FB68D9437B88C0
:10315C000B401A437B681A6100BF1437BD4680BC14
:10316C007047000080B582B000AF0346FB80084B6F
:10317C005A69FB881340002B06D0054AFB88536123
:10318C00FB88184600F006F800BF0837BD4680BD26
:10319C000004014080B483B000AF0346FB8000BF45
:1031AC000C37BD4680BC704780B584B000AF7860EA
:1031BC007B68002B01D101232BE17B6893F83D3018
:1031CC00DBB2002B06D17B68002283F83C207868A8
:1031DC00FEF780FE7B68242283F83D207B681B6809
:1031EC001A687B681B6822F001021A607B681B68F6
:1031FC001A687B681B6842F400421A607B681B6883
:10320C001A687B681B6822F400421A6001F030F8DF
:10321C00F8607B685B68814A934207D8FB68804AF8
:10322C00934294BF01230023DBB206E0FB687D4A86
:10323C00934294BF01230023DBB2002B01D0012366
:10324C00E7E0FB68784AA2FB03239B0CBB607B681E
:10325C001B685B6823F03F017B681B68BA680A43F4
:10326C005A607B681B681B6A23F03F017B685B68B4
:10327C006A4A934202D8BB68013309E0BB684FF439
:10328C00967202FB03F3694AA2FB03239B090133E9
:10329C007A6812680B4313627B681B68DB6923F442
:1032AC004F4222F0FF027B685B685C498B4219D865
:1032BC00FB68591E7B685B685B00B1FBF3F3591C20
:1032CC0040F6FC730B40002B0AD0FB68591E7B6840
:1032DC005B685B00B1FBF3F30133C3F30B0351E009
:1032EC0004234FE07B689B68002B11D1FB68581EB0
:1032FC007B6859680B465B000B44B0FBF3F301335E
:10330C00C3F30B03002B0CBF01230023DBB212E031
:10331C00FB68581E7B6859680B469B000B44990050
:10332C000B44B0FBF3F30133C3F30B03002B0CBFC3
:10333C0001230023DBB2002B01D0012322E07B68A8
:10334C009B68002B0ED1FB68581E7B6859680B4696
:10335C005B000B44B0FBF3F30133C3F30B0343F4F7
:10336C0000430FE0FB68581E7B6859680B469B00B6
:10337C000B4499000B44B0FBF3F30133C3F30B0381
:10338C0043F44043796809681343CB617B681B683D
:10339C001B6823F0C0017B68DA697B681B6A1A43DF
:1033AC007B681B680A431A607B681B689B6823F464
:1033BC00034323F0FF037A6811697A68D2681143DA
:1033CC007A6812680B4393607B681B68DB6823F098
:1033DC00FF017B685A697B689B691A437B681B6891
:1033EC000A43DA607B681B681A687B681B6842F0CA
:1033FC0001021A607B6800221A647B68202283F821
:10340C003D207B6800221A637B68002283F83E20F3
:10341C00002318461037BD4680BD00BFA0860100B2
:10342C007F841E00FF083D0083DE1B43D34D6210DA
:10343C0080B588B002AFF8607A601A460B467B8183
:10344C0013463B81FFF7EAFA7861FB6893F83D304D
:10345C00DBB2202B40F0E0807B6900931923012222
:10346C007049F86800F064F90346002B01D0022380
:10347C00D3E0FB6893F83C30012B01D10223CCE064
:10348C00FB68012283F83C20FB681B681B6803F077
:10349C000103012B07D0FB681B681A68FB681B68CB
:1034AC0042F001021A60FB681B681A68FB681B6813
:1034BC0022F400621A60FB68212283F83D20FB682D
:1034CC00102283F83E20FB6800221A64FB687A689D
:1034DC005A62FB683A895A85FB685B8D9AB2FB6825
:1034EC001A85FB68504ADA6279897B693A6AF8680E
:1034FC0000F09CF80346002B01D001238DE0002343
:10350C003B61FB681B685B693B61FB681B689B69E3
:10351C003B613B6966E07A69396AF86800F022FA27
:10352C000346002B0DD0FB681B6C042B07D1FB68EA
:10353C001B681A68FB681B6842F400721A6001234E
:10354C006BE0FB685B6A1A78FB681B681A61FB68A6
:10355C005B6A5A1CFB685A62FB685B8D9BB2013B31
:10356C009AB2FB685A85FB681B8D013B9AB2FB68CB
:10357C001A85FB681B685B6903F00403042B1BD1E1
:10358C00FB681B8D002B17D0FB685B6A1A78FB68F5
:10359C001B681A61FB685B6A5A1CFB685A62FB6801
:1035AC005B8D9BB2013B9AB2FB685A85FB681B8D05
:1035BC00013B9AB2FB681A857A69396AF86800F09F
:1035CC0019FA0346002B0DD0FB681B6C042B07D19A
:1035DC00FB681B681A68FB681B6842F400721A606F
:1035EC0001231AE0FB681B8D002B94D1FB681B6830
:1035FC001A68FB681B6842F400721A60FB68202290
:10360C0083F83D20FB68002283F83E20FB680022F3
:10361C0083F83C20002300E0022318461837BD46EF
:10362C0080BD00BF020010000000FFFF80B588B015
:10363C0002AFF8607A603B600B467B81FB68DB6A0B
:10364C007B617B69082B06D07B69012B03D07B69DE
:10365C0013F5803F08D1FB681B681A68FB681B6870
:10366C0042F480721A600BE0FB681B6B122B07D1C3
:10367C00FB681B681A68FB681B6842F480721A604E
:10368C003B6800937B6800224FF00111F86800F052
:10369C004FF80346002B0DD0FB681B681B6803F426
:1036AC008073B3F5807F03D1FB684FF400721A640A
:1036BC00032335E0FB681B69B3F5804F08D17B8988
:1036CC00DBB21A46FB681B6802F0FE021A611BE0B3
:1036DC007B89DB11DBB203F00603DBB263F00F0373
:1036EC00DAB2FB681B681A613B687A680E49F868A5
:1036FC0000F098F80346002B01D0012310E07B89E1
:10370C00DAB2FB681B681A613B687A680749F8688B
:10371C0000F088F80346002B01D0012300E00023C1
:10372C0018461837BD4680BD080001000200010094
:10373C0080B584B000AFF860B9603B601346FB7194
:10374C0048E03B68B3F1FF3F44D0FFF767F902460E
:10375C00BB69D31A3A689A4202D33B68002B39D121
:10376C00BB681B0CDBB2012B0DD1FB681B685B69C2
:10377C00DA43BB6813409BB2002B0CBF0123002320
:10378C00DBB21A460CE0FB681B689B69DA43BB682A
:10379C0013409BB2002B0CBF01230023DBB21A4653
:1037AC00FB799A4216D1FB6800221A63FB6820222F
:1037BC0083F83D20FB68002283F83E20FB681B6CDD
:1037CC0043F02002FB681A64FB68002283F83C205B
:1037DC00012323E0BB681B0CDBB2012B0DD1FB6872
:1037EC001B685B69DA43BB6813409BB2002B0CBFB0
:1037FC0001230023DBB21A460CE0FB681B689B69B3
:10380C00DA43BB6813409BB2002B0CBF012300238F
:10381C00DBB21A46FB799A4293D000231846103734
:10382C00BD4680BD80B584B000AFF860B9607A60E9
:10383C003B6071E0FB681B685B6903F48063B3F564
:10384C00806F23D1FB681B681A68FB681B6842F405
:10385C0000721A60FB681B686FF480625A61FB6827
:10386C0000221A63FB68202283F83D20FB680022AB
:10387C0083F83E20FB681B6C43F00402FB681A645F
:10388C00FB68002283F83C20012367E07B68B3F1DE
:10389C00FF3F41D0FFF7C2F802463B68D31A7A6863
:1038AC009A4202D37B68002B36D1BB681B0CDBB26F
:1038BC00012B0CD1FB681B685B69DA43BB681340B6
:1038CC009BB2002B14BF01230023DBB20BE0FB687F
:1038DC001B689B69DA43BB6813409BB2002B14BF77
:1038EC0001230023DBB2002B16D0FB6800221A63E5
:1038FC00FB68202283F83D20FB68002283F83E20E1
:10390C00FB681B6C43F02002FB681A64FB68002206
:10391C0083F83C20012321E0BB681B0CDBB2012B9C
:10392C000CD1FB681B685B69DA43BB6813409BB224
:10393C00002B14BF01230023DBB20BE0FB681B68D8
:10394C009B69DA43BB6813409BB2002B14BF012365
:10395C000023DBB2002B7FF46DAF00231846103729
:10396C00BD4680BD80B584B000AFF860B9607A60A8
:10397C0034E0F86800F086F80346002B01D00123F0
:10398C0034E0BB68B3F1FF3F28D0FFF747F802469D
:10399C007B68D31ABA689A4202D3BB68002B1DD13C
:1039AC00FB681B685B6903F08003802B16D0FB68F7
:1039BC0000221A63FB68202283F83D20FB6800225A
:1039CC0083F83E20FB681B6C43F02002FB681A64F2
:1039DC00FB68002283F83C20012307E0FB681B688E
:1039EC005B6903F08003802BC3D10023184610378A
:1039FC00BD4680BD80B584B000AFF860B9607A6018
:103A0C0034E0F86800F03EF80346002B01D00123A7
:103A1C0034E0BB68B3F1FF3F28D0FEF7FFFF02464E
:103A2C007B68D31ABA689A4202D3BB68002B1DD1AB
:103A3C00FB681B685B6903F00403042B16D0FB685E
:103A4C0000221A63FB68202283F83D20FB680022C9
:103A5C0083F83E20FB681B6C43F02002FB681A6461
:103A6C00FB68002283F83C20012307E0FB681B68FD
:103A7C005B6903F00403042BC3D1002318461037F1
:103A8C00BD4680BD80B483B000AF78607B681B6896
:103A9C005B6903F48063B3F5806F1BD17B681B6893
:103AAC006FF480625A617B6800221A637B68202263
:103ABC0083F83D207B68002283F83E207B681B6CDA
:103ACC0043F004027B681A647B68002283F83C2074
:103ADC00012300E0002318460C37BD4680BC70471C
:103AEC0080B586B000AF78607B68002B01D10123D4
:103AFC006CE27B681B6803F00103002B00F08780ED
:103B0C00924B5B6803F00C03042B0CD08F4B5B685F
:103B1C0003F00C03082B12D18C4B5B6803F480333D
:103B2C00B3F5803F0BD1894B1B6803F40033002B9A
:103B3C006CD07B685B68002B68D1012346E27B6804
:103B4C005B68B3F5803F06D1804B1B687F4A43F41A
:103B5C00803313602EE07B685B68002B0CD17B4BB1
:103B6C001B687A4A23F480331360784B1B68774ABE
:103B7C0023F4802313601DE07B685B68B3F5A02FF2
:103B8C000CD1724B1B68714A43F4802313606F4B4A
:103B9C001B686E4A43F4803313600BE06B4B1B685D
:103BAC006A4A23F480331360684B1B68674A23F41A
:103BBC00802313607B685B68002B13D0FEF72EFF0D
:103BCC00386108E0FEF72AFF02463B69D31A642BE2
:103BDC0001D90323FAE15D4B1B6803F40033002B7E
:103BEC00F0D014E0FEF71AFF386108E0FEF716FF7C
:103BFC0002463B69D31A642B01D90323E6E1534BEC
:103C0C001B6803F40033002BF0D100E000BF7B688D
:103C1C001B6803F00203002B63D04C4B5B6803F072
:103C2C000C03002B0BD0494B5B6803F00C03082BE7
:103C3C001CD1464B5B6803F48033002B16D1434BED
:103C4C001B6803F00203002B05D07B681B69012B5A
:103C5C0001D00123BAE13D4B1B6823F0F8027B68CD
:103C6C005B69DB00394913430B603AE07B681B69E5
:103C7C00002B20D0364B01221A60FEF7CFFE3861A4
:103C8C0008E0FEF7CBFE02463B69D31A022B01D9A2
:103C9C0003239BE12D4B1B6803F00203002BF0D098
:103CAC002A4B1B6823F0F8027B685B69DB00274911
:103CBC0013430B6015E0264B00221A60FEF7AEFE94
:103CCC00386108E0FEF7AAFE02463B69D31A022BC4
:103CDC0001D903237AE11D4B1B6803F00203002B6F
:103CEC00F0D17B681B6803F00803002B3AD07B688B
:103CFC009B69002B19D0174B01221A60FEF78EFE20
:103D0C00386108E0FEF78AFE02463B69D31A022BA3
:103D1C0001D903235AE10D4B5B6A03F00203002B1C
:103D2C00F0D0012000F0CCFA1CE00A4B00221A6003
:103D3C00FEF774FE38610FE0FEF770FE02463B6939
:103D4C00D31A022B08D9032340E100BF0010024014
:103D5C0000004242800442429E4B5B6A03F0020325
:103D6C00002BE9D17B681B6803F00403002B00F0E7
:103D7C00A6800023FB75974BDB6903F08053002B67
:103D8C000DD1944BDB69934A43F08053D361914B33
:103D9C00DB6903F08053BB60BB680123FB758E4B62
:103DAC001B6803F48073002B18D18B4B1B688A4A59
:103DBC0043F480731360FEF731FE386108E0FEF7C0
:103DCC002DFE02463B69D31A642B01D90323FDE077
:103DDC00814B1B6803F48073002BF0D07B68DB688D
:103DEC00012B06D17B4B1B6A7A4A43F00103136209
:103DFC002DE07B68DB68002B0CD1764B1B6A754A77
:103E0C0023F001031362734B1B6A724A23F0040301
:103E1C0013621CE07B68DB68052B0CD16D4B1B6AB5
:103E2C006C4A43F0040313626A4B1B6A694A43F001
:103E3C00010313620BE0674B1B6A664A23F0010314
:103E4C001362644B1B6A634A23F0040313627B689E
:103E5C00DB68002B15D0FEF7E1FD38610AE0FEF7B8
:103E6C00DDFD02463B69D31A41F28832934201D9F7
:103E7C000323ABE0574B1B6A03F00203002BEED07D
:103E8C0014E0FEF7CBFD38610AE0FEF7C7FD0246F1
:103E9C003B69D31A41F28832934201D9032395E04E
:103EAC004C4B1B6A03F00203002BEED1FB7D012B64
:103EBC0005D1484BDB69474A23F08053D3617B68BB
:103ECC00DB69002B00F08180424B5B6803F00C0334
:103EDC00082B61D07B68DB69022B46D13F4B00225B
:103EEC001A60FEF79BFD386108E0FEF797FD02466D
:103EFC003B69D31A022B01D9032367E0354B1B68AE
:103F0C0003F00073002BF0D17B681B6AB3F5803F84
:103F1C0008D1304B5B6823F400327B689B682D49D9
:103F2C0013434B602B4B5B6823F474127B68196A48
:103F3C007B685B6A0B43274913434B60274B012279
:103F4C001A60FEF76BFD386108E0FEF767FD02466C
:103F5C003B69D31A022B01D9032337E01D4B1B6895
:103F6C0003F00073002BF0D02FE01C4B00221A60E2
:103F7C00FEF754FD386108E0FEF750FD02463B6940
:103F8C00D31A022B01D9032320E0124B1B6803F038
:103F9C000073002BF0D118E07B68DB69012B01D199
:103FAC00012313E00B4B5B68FB60FB6803F480326E
:103FBC007B681B6A9A4206D1FB6803F470127B681B
:103FCC005B6A9A4201D0012300E00023184618379F
:103FDC00BD4680BD001002400070004060004242AF
:103FEC0080B584B000AF786039607B68002B01D15C
:103FFC000123D0E06A4B1B6803F007033A689A422E
:10400C0010D9674B1B6823F0070265493B681343C3
:10401C000B60634B1B6803F007033A689A4201D0AC
:10402C000123B8E07B681B6803F00203002B20D04F
:10403C007B681B6803F00403002B05D0594B5B68AD
:10404C00584A43F4E06353607B681B6803F0080331
:10405C00002B05D0534B5B68524A43F460535360BA
:10406C00504B5B6823F0F0027B689B684D4913430F
:10407C004B607B681B6803F00103002B40D07B680E
:10408C005B68012B07D1474B1B6803F40033002BF3
:10409C0015D101237FE07B685B68022B07D1414B74
:1040AC001B6803F00073002B09D1012373E03D4B17
:1040BC001B6803F00203002B01D101236BE0394B89
:1040CC005B6823F003027B685B68364913434B60E3
:1040DC00FEF7A4FCF8600AE0FEF7A0FC0246FB68C1
:1040EC00D31A41F28832934201D9032353E02D4B6A
:1040FC005B6803F00C027B685B689B009A42EBD117
:10410C00274B1B6803F007033A689A4210D2244BE2
:10411C001B6823F0070222493B6813430B60204BBA
:10412C001B6803F007033A689A4201D0012332E07E
:10413C007B681B6803F00403002B08D0194B5B68E9
:10414C0023F4E0627B68DB68164913434B607B68A1
:10415C001B6803F00803002B09D0124B5B6823F497
:10416C0060527B681B69DB000E4913434B6000F007
:10417C0021F802460B4B5B681B0903F00F030A493D
:10418C00CB5C22FA03F3094A1360094B1B681846EF
:10419C00FEF702FC002318461037BD4680BD00BF59
:1041AC000020024000100240985F00086C000020C4
:1041BC007000002080B487B000AF0023FB600023A8
:1041CC00BB6000237B6100237B6000233B611E4BA3
:1041DC005B68FB60FB6803F00C03042B02D0082B1C
:1041EC0003D027E0194B3B6127E0FB689B0C03F0E5
:1041FC000F03174AD35C7B60FB6803F48033002BFE
:10420C0010D0114B5B685B0C03F00103114AD35CBB
:10421C00BB607B680D4A02FB03F2BB68B2FBF3F395
:10422C007B6104E07B680C4A02FB03F37B617B69D6
:10423C003B6102E0054B3B6100BF3B6918461C37F4
:10424C00BD4680BC704700BF0010024000127A00CF
:10425C00B05F0008C05F000800093D0080B400AFEB
:10426C00024B1B681846BD4680BC70476C00002092
:10427C0080B500AFFFF7F2FF0246054B5B681B0AE7
:10428C0003F007030349CB5C22FA03F3184680BD05
:10429C0000100240A85F000880B500AFFFF7DEFFFA
:1042AC000246054B5B68DB0A03F007030349CB5C52
:1042BC0022FA03F3184680BD00100240A85F0008E4
:1042CC0080B485B000AF78600A4B1B680A4AA2FB29
:1042DC0003235B0A7A6802FB03F3FB6000BFFB68F5
:1042EC005A1EFA60002BF9D100BF00BF1437BD462F
:1042FC0080BC70476C000020D34D621080B582B03A
:10430C0000AF78607B68002B01D1012341E07B6812
:10431C0093F83D30DBB2002B06D17B68002283F88A
:10432C003C207868FDF726FE7B68022283F83D204E
:10433C007B681A687B6804331946104600F05CFAF7
:10434C007B68012283F846207B68012283F83E209B
:10435C007B68012283F83F207B68012283F8402090
:10436C007B68012283F841207B68012283F842207C
:10437C007B68012283F843207B68012283F8442068
:10438C007B68012283F845207B68012283F83D205D
:10439C00002318460837BD4680BD000080B485B0A8
:1043AC0000AF78607B6893F83D30DBB2012B01D015
:1043BC0001233AE07B68022283F83D207B681B686E
:1043CC00DA687B681B6842F00102DA607B681B6864
:1043DC00184A93420ED07B681B68B3F1804F09D00A
:1043EC007B681B68144A934204D07B681B68134A91
:1043FC00934211D17B681B689B6803F00703FB6039
:10440C00FB68062B10D07B681B681A687B681B68DE
:10441C0042F001021A6007E07B681B681A687B682F
:10442C001B6842F001021A60002318461437BD467F
:10443C0080BC7047002C0140000400400008004084
:10444C0080B584B000AF78607B681B68DB68FB606C
:10445C007B681B681B69BB60BB6803F00203002B05
:10446C0020D0FB6803F00203002B1BD07B681B6879
:10447C006FF002021A617B6801221A777B681B6855
:10448C009B6903F00303002B03D0786800F098F9C4
:10449C0005E0786800F08BF9786800F09AF97B6891
:1044AC0000221A77BB6803F00403002B20D0FB68B2
:1044BC0003F00403002B1BD07B681B686FF0040215
:1044CC001A617B6802221A777B681B689B6903F46C
:1044DC004073002B03D0786800F072F905E078681F
:1044EC0000F065F9786800F074F97B6800221A779F
:1044FC00BB6803F00803002B20D0FB6803F0080313
:10450C00002B1BD07B681B686FF008021A617B685C
:10451C0004221A777B681B68DB6903F00303002B0A
:10452C0003D0786800F04CF905E0786800F03FF9AA
:10453C00786800F04EF97B6800221A77BB6803F0AC
:10454C001003002B20D0FB6803F01003002B1BD0B2
:10455C007B681B686FF010021A617B6808221A775F
:10456C007B681B68DB6903F44073002B03D078680D
:10457C0000F026F905E0786800F019F9786800F089
:10458C0028F97B6800221A77BB6803F00103002B23
:10459C000CD0FB6803F00103002B07D07B681B6871
:1045AC006FF001021A617868FDF72EF8BB6803F012
:1045BC008003002B0CD0FB6803F08003002B07D08A
:1045CC007B681B686FF080021A61786800F07FFAD4
:1045DC00BB6803F04003002B0CD0FB6803F04003D6
:1045EC00002B07D07B681B686FF040021A6178685B
:1045FC0000F0F8F8BB6803F02003002B0CD0FB682C
:10460C0003F02003002B07D07B681B686FF020029F
:10461C001A61786800F052FA00BF1037BD4680BDB1
:10462C0080B584B000AF786039600023FB737B6881
:10463C0093F83C30012B01D10223B4E07B680122BA
:10464C0083F83C207B68022283F83D207B681B6842
:10465C009B68BB60BB6823F07703BB60BB6823F42B
:10466C007F43BB607B681B68BA689A603B681B68B9
:10467C00B3F5005F3ED0B3F5005F00F28780B3F571
:10468C00805F00F08680B3F5805F7FD8702B1AD0E6
:10469C00702B7BD8602B50D0602B77D8502B3CD014
:1046AC00502B73D8402B58D0402B6FD8302B64D064
:1046BC00302B6BD8202B60D0202B67D8002B5CD0F4
:1046CC00102B5AD062E07B6818683B6899683B688D
:1046DC005A683B68DB6800F074F97B681B689B6860
:1046EC00BB60BB6843F07703BB607B681B68BA6830
:1046FC009A604FE07B6818683B6899683B685A6819
:10470C003B68DB6800F05DF97B681B689A687B6826
:10471C001B6842F480429A603CE07B6818683B68F6
:10472C0059683B68DB681A4600F0D4F87B681B6854
:10473C005021184600F02BF92CE07B6818683B6878
:10474C0059683B68DB681A4600F0F2F87B681B6816
:10475C006021184600F01BF91CE07B6818683B6868
:10476C0059683B68DB681A4600F0B4F87B681B6834
:10477C004021184600F00BF90CE07B681A683B6886
:10478C001B681946104600F002F903E00123FB7385
:10479C0000E000BF7B68012283F83D207B6800228B
:1047AC0083F83C20FB7B18461037BD4680BD80B497
:1047BC0083B000AF786000BF0C37BD4680BC70473B
:1047CC0080B483B000AF786000BF0C37BD4680BCAE
:1047DC00704780B483B000AF786000BF0C37BD4623
:1047EC0080BC704780B483B000AF786000BF0C37DA
:1047FC00BD4680BC7047000080B485B000AF7860C7
:10480C0039607B681B68FB607B682F4A93420BD036
:10481C007B68B3F1804F07D07B682C4A934203D05E
:10482C007B682B4A934208D1FB6823F07003FB6032
:10483C003B685B68FA681343FB607B68224A9342CF
:10484C000BD07B68B3F1804F07D07B681F4A934233
:10485C0003D07B681E4A934208D1FB6823F4407353
:10486C00FB603B68DB68FA681343FB60FB6823F072
:10487C0080023B685B691343FB607B68FA681A60D3
:10488C003B689A687B68DA623B681A687B689A6254
:10489C007B680D4A934203D13B681A697B681A63A3
:1048AC007B6801225A617B681B6903F00103002BB2
:1048BC0005D07B681B6923F001027B681A6100BF7D
:1048CC001437BD4680BC7047002C014000040040EA
:1048DC000008004080B487B000AFF860B9607A601F
:1048EC00FB681B6A7B61FB681B6A23F00102FB6897
:1048FC001A62FB689B693B613B6923F0F0033B61E7
:10490C007B681B013A6913433B617B6923F00A0303
:10491C007B617A69BB6813437B61FB683A699A6176
:10492C00FB687A691A6200BF1C37BD4680BC7047B1
:10493C0080B487B000AFF860B9607A60FB681B6A1E
:10494C007B61FB681B6A23F01002FB681A62FB6830
:10495C009B693B613B6923F470433B617B681B03A0
:10496C003A6913433B617B6923F0A0037B61BB680D
:10497C001B017A6913437B61FB683A699A61FB6896
:10498C007A691A6200BF1C37BD4680BC704780B480
:10499C0085B000AF786039607B689B68FB60FB6812
:1049AC0023F07003FB603A68FB68134343F0070382
:1049BC00FB607B68FA689A6000BF1437BD4680BC08
:1049CC00704780B487B000AFF860B9607A603B6024
:1049DC00FB689B687B617B6923F47F437B613B684D
:1049EC001A027B681A43BB6813437A6913437B61D1
:1049FC00FB687A699A6000BF1C37BD4680BC704763
:104A0C0080B485B000AF786039607B6893F83C3037
:104A1C00012B01D1022346E07B68012283F83C2064
:104A2C007B68022283F83D207B681B685B68FB6017
:104A3C007B681B689B68BB60FB6823F07003FB60A2
:104A4C003B681B68FA681343FB607B681B68FA6859
:104A5C005A607B681B68164A93420ED07B681B68B1
:104A6C00B3F1804F09D07B681B68124A934204D083
:104A7C007B681B68104A93420CD1BB6823F08003FF
:104A8C00BB603B685B68BA681343BB607B681B68A0
:104A9C00BA689A607B68012283F83D207B6800220B
:104AAC0083F83C20002318461437BD4680BC704761
:104ABC00002C0140000400400008004080B483B08A
:104ACC0000AF786000BF0C37BD4680BC704780B427
:104ADC0083B000AF786000BF0C37BD4680BC704718
:104AEC0080B582B000AF78607B68002B01D10123C8
:104AFC0042E07B6893F84130DBB2002B06D17B6837
:104B0C00002283F840207868FDF758FA7B6824224D
:104B1C0083F841207B681B68DA687B681B6822F489
:104B2C000052DA60786800F0D5FC7B681B681A6963
:104B3C007B681B6822F490421A617B681B685A6977
:104B4C007B681B6822F02A025A617B681B68DA6852
:104B5C007B681B6842F40052DA607B6800225A645E
:104B6C007B68202283F841207B68202283F8422036
:104B7C007B6800225A63002318460837BD4680BD67
:104B8C0080B584B000AFF860B9601346FB80FB6859
:104B9C0093F84230DBB2202B12D1BB68002B02D031
:104BAC00FB88002B01D101230BE0FB6800221A6368
:104BBC00FB881A46B968F86800F0B7FA034600E0BB
:104BCC00022318461037BD4680BD000080B5BAB030
:104BDC0000AF78607B681B681B68C7F8E4307B68A3
:104BEC001B68DB68C7F8E0307B681B685B69C7F83B
:104BFC00DC300023C7F8D8300023C7F8D430D7F8FE
:104C0C00E43003F00F03C7F8D830D7F8D830002BB6
:104C1C000FD1D7F8E43003F02003002B09D0D7F8DC
:104C2C00E03003F02003002B03D0786800F093FBF6
:104C3C005BE2D7F8D830002B00F0DE80D7F8DC3000
:104C4C0003F00103002B06D1D7F8E03003F4907386
:104C5C00002B00F0D180D7F8E43003F00103002BD7
:104C6C000BD0D7F8E03003F48073002B05D07B68B1
:104C7C005B6C43F001027B685A64D7F8E43003F0B4
:104C8C000403002B0BD0D7F8DC3003F00103002B0E
:104C9C0005D07B685B6C43F002027B685A64D7F8E2
:104CAC00E43003F00203002B0BD0D7F8DC3003F018
:104CBC000103002B05D07B685B6C43F004027B681E
:104CCC005A64D7F8E43003F00803002B11D0D7F85E
:104CDC00E03003F02003002B05D1D7F8DC3003F0D3
:104CEC000103002B05D07B685B6C43F008027B68EA
:104CFC005A647B685B6C002B00F0F281D7F8E430CF
:104D0C0003F02003002B08D0D7F8E03003F0200389
:104D1C00002B02D0786800F01EFB7B681B685B6977
:104D2C0003F04003002B14BF01230023DBB2C7F8B0
:104D3C00D4307B685B6C03F00803002B03D1D7F8ED
:104D4C00D430002B4FD0786800F028FA7B681B68B1
:104D5C005B6903F04003002B41D07B681B68143364
:104D6C00C7F89C30D7F89C3053E8003FC7F8983010
:104D7C00D7F8983023F04003C7F8D0307B681B6815
:104D8C001433D7F8D020C7F8A820C7F8A430D7F828
:104D9C00A410D7F8A82041E80023C7F8A030D7F812
:104DAC00A030002BD9D17B68DB6B002B13D07B6838
:104DBC00DB6B7E4A5A637B68DB6B1846FDF7A4FFFE
:104DCC000346002B16D07B68DB6B5B6B7A68D26B6F
:104DDC00104698470EE0786800F093F90AE078687E
:104DEC0000F08FF906E0786800F08BF97B68002200
:104DFC005A6475E100BF73E17B681B6B012B40F0BB
:104E0C004F81D7F8E43003F01003002B00F04881F9
:104E1C00D7F8E03003F01003002B00F041810023A1
:104E2C00BB607B681B681B68BB607B681B685B682E
:104E3C00BB60BB687B681B685B6903F04003002B9D
:104E4C0000F0B6807B68DB6B1B685B68A7F8BE3034
:104E5C00B7F8BE30002B00F045817B689B8DB7F80E
:104E6C00BE209A4280F03E817B68B7F8BE20DA857E
:104E7C007B68DB6B9B69202B00F088807B681B6850
:104E8C000C33C7F88830D7F8883053E8003FC7F8A0
:104E9C008430D7F8843023F48073C7F8B8307B683B
:104EAC001B680C33D7F8B820C7F89420C7F890309B
:104EBC00D7F89010D7F8942041E80023C7F88C302D
:104ECC00D7F88C30002BD9D17B681B6814337B67E7
:104EDC007B6F53E8003F3B673B6F23F00103C7F840
:104EEC00B4307B681B681433D7F8B420C7F8802023
:104EFC00FB67F96FD7F8802041E80023BB67BB6FD5
:104F0C00002BE1D17B681B6814333B663B6E53E886
:104F1C00003FFB65FB6D23F04003C7F8B0307B68A6
:104F2C001B681433D7F8B020FA66BB66B96EFA6EFC
:104F3C0041E800237B667B6E002BE3D17B6820224B
:104F4C0083F842207B6800221A637B681B680C3351
:104F5C00FB64FB6C53E8003FBB64BB6C23F0100399
:104F6C00C7F8AC307B681B680C33D7F8AC20BA653B
:104F7C007B65796DBA6D41E800233B653B6D002B79
:104F8C00E3D17B68DB6B1846FDF783FE7B6802225E
:104F9C005A637B689A8D7B68DB8D9BB2D31A9BB26C
:104FAC001946786800F0B6F89CE000BF6D52000816
:104FBC007B689A8D7B68DB8D9BB2D31AA7F8CE30B9
:104FCC007B68DB8D9BB2002B00F08E80B7F8CE3067
:104FDC00002B00F089807B681B680C33BB63BB6BB8
:104FEC0053E8003F7B637B6B23F49073C7F8C830A6
:104FFC007B681B680C33D7F8C8207A643B64396C27
:10500C007A6C41E80023FB63FB6B002BE3D17B68DC
:10501C001B6814337B627B6A53E8003F3B623B6A3C
:10502C0023F00103C7F8C4307B681B681433D7F82E
:10503C00C4203A63FB62F96A3A6B41E80023BB6215
:10504C00BB6A002BE3D17B68202283F842207B686B
:10505C0000221A637B681B680C333B613B6953E885
:10506C00003FFB60FB6823F01003C7F8C0307B687F
:10507C001B680C33D7F8C020FA61BB61B969FA69B7
:10508C0041E800237B617B69002BE3D17B68022222
:10509C005A63B7F8CE301946786800F03BF823E035
:1050AC00D7F8E43003F08003002B09D0D7F8E030B8
:1050BC0003F08003002B03D0786800F0E5F814E0CF
:1050CC00D7F8E43003F04003002B0ED0D7F8E030D3
:1050DC0003F04003002B08D0786800F024F904E0BA
:1050EC0000BF02E000BF00E000BFE837BD4680BD56
:1050FC0080B483B000AF786000BF0C37BD4680BC75
:10510C00704780B483B000AF786000BF0C37BD46E9
:10511C0080BC704780B483B000AF78600B467B8056
:10512C0000BF0C37BD4680BC704780B485B000AF63
:10513C00F860B9601346FB80FB68BA689A62FB683A
:10514C00FA889A85FB68FA88DA85FB6800225A642B
:10515C00FB68222283F84220FB681B69002B07D0D6
:10516C00FB681B68DA68FB681B6842F48072DA60C3
:10517C00FB681B685A69FB681B6842F001025A61A4
:10518C00FB681B68DA68FB681B6842F02002DA6077
:10519C00002318461437BD4680BC704780B495B0C8
:1051AC0000AF78607B681B680C337B637B6B53E8C8
:1051BC00003F3B633B6B23F49073FB647B681B6881
:1051CC000C33FA6C3A64FB63F96B3A6C41E80023DC
:1051DC00BB63BB6B002BE5D17B681B6814333B6254
:1051EC003B6A53E8003FFB61FB6923F00103BB649E
:1051FC007B681B681433BA6CFA62BB62B96AFA6AD0
:10520C0041E800237B627B6A002BE5D17B681B6B3A
:10521C00012B19D17B681B680C33FB60FB6853E8CE
:10522C00003FBB60BB6823F010037B647B681B688A
:10523C000C337A6CBA617B617969BA6941E80023F5
:10524C003B613B69002BE5D17B68202283F842202F
:10525C007B6800221A6300BF5437BD4680BC704780
:10526C0080B584B000AF78607B685B6AFB60FB68DC
:10527C000022DA85FB680022DA84F868FFF741FF28
:10528C0000BF1037BD4680BD80B485B000AF7860DC
:10529C007B6893F84130DBB2212B3ED17B689B6855
:1052AC00B3F5805F14D17B681B69002B10D17B6830
:1052BC001B6AFB60FB681B881A467B681B68C2F381
:1052CC0008025A607B681B6A9A1C7B681A6208E0A9
:1052DC007B681B6A591C7A6811621A787B681B6898
:1052EC005A607B68DB8C9BB2013B9BB27A68194697
:1052FC00D184002B0FD17B681B68DA687B681B6834
:10530C0022F08002DA607B681B68DA687B681B68B5
:10531C0042F04002DA60002300E002231846143702
:10532C00BD4680BC704780B582B000AF78607B68AA
:10533C001B68DA687B681B6822F04002DA607B68C5
:10534C00202283F841207868FFF7D2FE002318460C
:10535C000837BD4680BD80B58CB000AF78607B68E7
:10536C0093F84230DBB2222B40F0AE807B689B6816
:10537C00B3F5805F17D17B681B69002B13D1002319
:10538C00FB627B689B6ABB627B681B685B689BB239
:10539C00C3F308039AB2BB6A1A807B689B6A9A1C97
:1053AC007B689A6226E07B689B6AFB620023BB6287
:1053BC007B689B68B3F5805F07D07B689B68002B8C
:1053CC000AD17B681B69002B06D17B681B685B6864
:1053DC00DAB2FB6A1A7008E07B681B685B68DBB2A8
:1053EC0003F07F03DAB2FB6A1A707B689B6A5A1C63
:1053FC007B689A627B68DB8D9BB2013B9BB27A68BF
:10540C001946D185002B5DD17B681B68DA687B68F7
:10541C001B6822F02002DA607B681B68DA687B6804
:10542C001B6822F48072DA607B681B685A697B689F
:10543C001B6822F001025A617B68202283F842200B
:10544C007B6800225A637B681B6B012B35D17B6810
:10545C0000221A637B681B680C337B617B6953E801
:10546C00003F3B613B6923F010037B627B681B6848
:10547C000C337A6A3A62FB61F9693A6A41E80023B3
:10548C00BB61BB69002BE5D17B681B681B6803F013
:10549C001003102B0AD10023FB607B681B681B6870
:1054AC00FB607B681B685B68FB60FB687B689B8DA3
:1054BC0019467868FFF72EFE02E07868FCF7AEF824
:1054CC00002302E0002300E0022318463037BD46DB
:1054DC0080BD000080B584B000AF78607B681B682D
:1054EC001B6923F440517B68DA687B681B680A43AC
:1054FC001A617B689A687B681B691A437B685B69D5
:10550C001343BB607B681B68DB6823F4B05323F048
:10551C000C037A681268B9680B43D3607B681B680C
:10552C005B6923F440717B689A697B681B680A434A
:10553C005A617B681B682C4A934203D1FEF7ACFE80
:10554C00F86002E0FEF794FEF860FA6813469B00E0
:10555C0013449A001A447B685B689B00B2FBF3F31C
:10556C00224AA2FB03235B091901FA6813469B002C
:10557C0013449A001A447B685B689B00B2FBF3F2FD
:10558C001A4BA3FB02035B09642000FB03F3D31A41
:10559C001B013233154AA2FB03235B0903F0F00312
:1055AC001944FA6813469B0013449A001A447B680A
:1055BC005B689B00B2FBF3F20C4BA3FB02035B0991
:1055CC00642000FB03F3D31A1B013233074AA2FBFE
:1055DC0003235B0903F00F027B681B680A449A6083
:1055EC0000BF1037BD4680BD003801401F85EB5110
:1055FC00014B1868704700BF7800002070B500267A
:10560C000C4D0D4C641BA410A64209D100F06CFC8F
:10561C0000260A4D0A4C641BA410A64205D170BD8D
:10562C0055F8043B98470136EEE755F8043B98478C
:10563C000136F2E700600008006000080060000816
:10564C0004600008024B0146186800F05FB800BF08
:10565C0078000020024B0146186800F00BB800BF20
:10566C007800002003460244934200D1704703F8AF
:10567C00011BF9E738B50546002943D051F8043C25
:10568C000C1F002BB8BFE41800F0CAF81E4A1368B0
:10569C00104633B9636014602846BDE8384000F00A
:1056AC00C5B8A3420AD921686218934201BF1A688F
:1056BC005B685218226063600460EDE71A465B6811
:1056CC000BB1A342FAD911685018A0420BD1206833
:1056DC000144501883421160DED118685B680144A4
:1056EC0011605360D8E702D90C232B60D4E72068F3
:1056FC0021188B4201BF19685B680918216063602F
:10570C005460C9E738BD00BF38010020F8B5CD1C86
:10571C0025F0030508350C2D38BF0C25002D064649
:10572C0001DBA94203D90C2333600020F8BD00F043
:10573C0077F821490A6814469CB9204F3B6823B975
:10574C002146304600F03CF838602946304600F0DF
:10575C0037F8431C23D10C233046336000F066F835
:10576C00E3E723685B1B17D40B2B03D923601C4482
:10577C00256004E06368A2420CBF0B6053603046A6
:10578C0000F054F804F10B00231D20F00700C21A9E
:10579C00CCD01B1AA350C9E722466468CCE7C41CC2
:1057AC0024F00304A042E3D0211A304600F008F89C
:1057BC000130DDD1CFE700BF380100203C010020D3
:1057CC0038B50023054D044608462B60FCF78CFCCD
:1057DC00431C02D12B6803B1236038BD3402002076
:1057EC000EB46FF0004100B59CB01DAB029006905A
:1057FC00079104910848094953F8042B0591006856
:10580C0002A9019300F074F80022029B1A701CB0DC
:10581C005DF804EB03B07047780000200802FFFF2E
:10582C00014800F0FBBA00BF3C020020014800F028
:10583C00F6BA00BF3C0200202DE9F0478E68824684
:10584C009E420C4690461F4638D88A8912F4906FB7
:10585C0032D0256809690133A5EB010965694B4410
:10586C0005EB450505EBD5756D109D4238BF1D4602
:10587C00530531D52946FFF749FF064650B90C238D
:10588C004FF0FF30CAF80030A38943F04003A381E6
:10589C00BDE8F0874A46216900F0D0FAA38923F4C9
:1058AC00906343F08003A38126614E4426603E46FC
:1058BC006561A5EB0905A560BE4200D93E4632469E
:1058CC004146206800F0C8FAA36822689B1B32444A
:1058DC000020A3602260DBE72A4600F0D7FA0646D8
:1058EC000028E1D150462169FFF7C4FEC7E700004C
:1058FC002DE9F04F98468B8907461B060D4614463A
:10590C009DB00ED50B6963B94021FFF7FFFE2860EF
:10591C00286120B90C233B604FF0FF30D1E04023CD
:10592C006B610023099320238DF8293030234FF02D
:10593C000109CDF80C80DFF8A4818DF82A302346BC
:10594C009A4613F8012B0AB1252AF9D1BAEB040BAC
:10595C000BD05B46224629463846FFF76DFF0130D7
:10596C0000F0AA80099A5A4409929AF80030002B48
:10597C0000F0A28000234FF0FF32CDE905230AF19D
:10598C00010A049307938DF853301A935446052259
:10599C0014F8011B514800F043FA049AD8B9D00608
:1059AC0044BF20238DF85330110744BF2B238DF8AF
:1059BC0053309AF800302A2B15D0544600204FF063
:1059CC000A0C079A214611F8013B303B092B4ED9A2
:1059DC00B0B1079214E0A0EB080309FA03F31343E8
:1059EC00A2460493D2E7039B191D1B680391002B5D
:1059FC00BBBF5B4242F0020207930793B8BF04920D
:105A0C0023782E2B0CD163782A2B35D1039B0234AF
:105A1C001A1D1B680392002BB8BF4FF0FF33059380
:105A2C00DFF8C8A003225046217800F0F9F940B104
:105A3C004023A0EB0A0003FA00F0049B013403435B
:105A4C00049314F8011B062225488DF8281000F049
:105A5C00E7F9002838D0234B1BBB039B073323F0FB
:105A6C00070308330393099B3344099367E70C46F8
:105A7C0001200CFB0232A5E700234FF00A0C19465B
:105A8C0001340593204610F8012B303A092A03D92A
:105A9C00002BC5D00591C3E7044601230CFB012163
:105AAC00F0E703AB00932A4638460F4B04A9AFF33B
:105ABC000080421C0646D6D1AB895B063FF52CAF65
:105ACC0009981DB0BDE8F08F03AB00932A46384609
